:020000020000FC
:100000000EC0189518951895189518951895189567
:100010001895189518951895189518951895B89AD3
:10002000C09A0EE308BB03EC0ABD01E003BF00E287
:1000300005BF7894F0E0E6E50591003009F4FACFC9
:1000400009BD00E004BF01B5096501BD006001BD47
:10005000A8958895F1CF010101010101010101017C
:10006000010101010101020305080B0F14191E24EF
:100070002B3138404850586169727B848D969EA719
:10008000AFB7BFC7CED4DBE1E6EBF0F4F7FAFAFA8C
:10009000FAFCFDFEFFFEFDFCFAF7F4F0EBE6E1DB17
:1000A000D4CEC7BFB7AFA79E968D847B72696158C7
:1000B00050484038312B241E19140F0B0805030239
:0200C00001003D
:00000001FF
